:020000040800F2
:1000000020070020890100089F100008970F0008B2
:100010009D1000088F020008DF110008000000009A
:10002000000000000000000000000000A310000815
:10003000B905000800000000A1100008A510000884
:10004000A3010008A3010008A3010008A301000800
:10005000A3010008A3010008A3010008A3010008F0
:10006000A3010008A3010008A3010008A3010008E0
:10007000A3010008A3010008A3010008A3010008D0
:10008000A3010008A3010008A3010008A3010008C0
:10009000A3010008A3010008A3010008A3010008B0
:1000A000A3010008A3010008A3010008A3010008A0
:1000B000A3010008A3010008A3010008A301000890
:1000C000A3010008A3010008A3010008A301000880
:1000D000A3010008A3010008A3010008A301000870
:1000E000A3010008A3010008A301000800F002F822
:1000F00000F03AF80AA090E8000C82448344AAF188
:100100000107DA4501D100F02FF8AFF2090EBAE885
:100110000F0013F0010F18BFFB1A43F0010318473B
:10012000D0130000F0130000103A24BF78C878C143
:10013000FAD8520724BF30C830C144BF04680C60ED
:10014000704700000023002400250026103A28BF35
:1001500078C1FBD8520728BF30C148BF0B60704739
:100160001FB51FBD10B510BD00F058F81146FFF7C0
:10017000F7FF01F045F800F076F803B4FFF7F2FF5F
:1001800003BC00F07DF8000009488047094800479B
:10019000FEE7FEE7FEE7FEE7FEE7FEE7FEE7FEE737
:1001A000FEE7FEE704480549054A064B7047000094
:1001B00005110008ED0000082001002020070020A4
:1001C00020030020200300204FF0000200B513465A
:1001D00094469646203922BFA0E80C50A0E80C5067
:1001E000B1F12001BFF4F7AF090728BFA0E80C5018
:1001F00048BF0CC05DF804EB890028BF40F8042B11
:1002000008BF704748BF20F8022B11F0804F18BF7D
:1002100000F8012B7047704770477047754600F033
:100220002BF8AE4605006946534620F00700854688
:1002300018B020B5FFF7B6FFBDE820404FF000062C
:100240004FF000074FF000084FF0000B21F00701BE
:10025000AC46ACE8C009ACE8C009ACE8C009ACE801
:10026000C0098D46704710B50446AFF300802046A4
:10027000BDE81040FFF781BF00487047BC00002078
:1002800001491820ABBEFEE7260002007047FEE7DA
:100290002DE9F05F0446DDE91090DDE90C65DDE94C
:1002A0000AC7DDE90EEB4FF00008DDF84CA084F83A
:1002B00000806170A2706360A4F808C0E7602682C5
:1002C0006563A4F838E0C4F83CB0A4F840906064DA
:1002D0001298A4F84800C4F84CA01498A4F8500050
:1002E000282084F85500062084F852000C2084F859
:1002F0005300142084F85400322000F05FF90022EB
:100300003321204600F070F8052000F057F9002254
:100310003321204600F068F8052000F04FF9002254
:100320003221204600F060F8052000F047F994F8EB
:1003300052100022204600F057F894F85310002283
:10034000204600F051F894F854100022204600F0A6
:100350004BF894F855100022204600F045F8002292
:100360000121204600F040F82046BDE8F05F002261
:10037000022100F039B810B50178102901D029B157
:1003800008E00022012100F0A4F803E0002201218E
:1003900000F02AF8BDE81040052000F00FB9000079
:1003A00008B510A31B68009343788B4201D85B1EED
:1003B000D9B28378934201D85B1EDAB21DF80220CD
:1003C00011440278C9B2102A06D0002A03D141F0A4
:1003D000800100F009F808BD41F08001002200F022
:1003E00078F808BD0040145470B504460E090D4657
:1003F00012B1012A04D008E021890022606802E0DD
:1004000021890122606800F0E0F9218F606B06F01D
:1004100001020C3400F0D9F9A18EC6F34002206B22
:1004200000F0D3F9A18FC6F38002A06B00F0CDF9E4
:10043000B4F84410F208206C00F0C7F9A18800223B
:10044000206800F0C2F9012000F0B8F8A18801226C
:10045000206800F0BAF9012000F0B0F8A18800226D
:10046000206800F0B2F9012000F0A8F805F00102C0
:10047000A18DA06A00F0A9F9A18EC5F34002206BFE
:1004800000F0A3F9A18FC5F38002A06B00F09DF9E5
:10049000B4F84410C5F3C002206C00F096F9A188AE
:1004A0000022206800F091F9012000F087F8A1886F
:1004B0000122206800F089F9012000F07FF8A1886E
:1004C0000022206800F081F9BDE87040012000F0B2
:1004D00075B870B50D46044612B1012A04D008E083
:1004E00021890022606802E021890122606800F011
:1004F0006CF9218B606905F001020C3400F065F99C
:10050000A18AC5F34002206900F05FF9A18BC5F311
:100510008002A06900F059F9A18CC5F3C002206ADD
:1005200000F053F9A18DC5F30012A06A00F04DF957
:10053000A18EC5F34012206B00F047F9A18FC5F3DF
:100540008012A06B00F041F9EA09B4F84410206C65
:1005500000F03BF9A1880022206800F036F9012064
:1005600000F02CF8A1880122206800F02EF901206B
:1005700000F024F8A1880022206800F026F9BDE8E8
:100580007040012000F01AB80278102A04D0002A26
:1005900005D10122FFF728BF0122FFF79ABF70475C
:1005A00070B50C46054603E02846641CFFF7ECFFD7
:1005B00021780029F8D170BD7047000070B504465D
:1005C00000F008F90546601C02D004480078044495
:1005D00000F000F9401BA042FAD370BD0C000020CF
:1005E0002DE9F84FDFF8B891002409F1040A0AF167
:1005F000040B23460F270BF1040EC9E00125A5408B
:100600002A40AA427DD1674ED1F804C0ACEB06085F
:10061000B44532D014DCBCF1030F3AD009DCBCF194
:10062000000F2AD0BCF1010F1CD0BCF1020F31D158
:100630001DE0BCF1110F17D0BCF1120F2AD119E047
:10064000B8F5881F19D006DCB8F5803F15D0B8F58D
:10065000801F1FD111E0B8F5001F0ED0B8F5041FA0
:1006600018D10AE0CB6815E0CB681B1D12E0CB68FF
:1006700008330FE0CB680C330CE08B682BB1012BF7
:100680004FF0080303D0456104E0042302E0056154
:1006900000E00023FF2A01D8064601E000F104062D
:1006A0004FEA840501D9A5F12005D6F8008007FAA4
:1006B00005FC28EA0C0803FA05F548EA0508C6F81F
:1006C00000804D68ED0062D5374DAE6946F00106F9
:1006D000AE61AD6924F0030605F001050095334DC8
:1006E00006EB050CDCF80850A607360F07FA06F8EB
:1006F00025EA0805DFF8B880404503D14FF000082F
:1007000017E044E0DFF8AC80404502D14FF001082B
:100710000FE0DFF8A480404502D14FF0020808E066
:10072000DFF89880404502D14FF0030801E04FF018
:10073000040808FA06F848EA0508CCF808804D686D
:10074000D9F80060ED034D4601D5164300E096430D
:100750002E604D68DAF80060AD03554601D51643AA
:1007600000E096432E604D68DBF80060ED025D46C8
:1007700001D5164300E096432E604D68DEF8006018
:10078000AD02754601D5164300E096432E60641C09
:100790000D682A46E5407FF431AFBDE8F88F0000D0
:1007A0000004014000001110001002400000014050
:1007B00000080140000C01400010014000140140FD
:1007C0008068084000D0012070470AB1016170477D
:1007D0000904FBE701488068704700000C00002016
:1007E0000248816802781144816070470C00002043
:1007F000074810B5016841F010010160032000F0C6
:1008000067F80F2000F006F800F024F8002010BD73
:100810000020024070B50D4D04464FF47A712878DF
:10082000B1FBF0F00A490968B1FBF0F000F0BEFA44
:1008300048B9102C07D200222146501E00F028F89B
:1008400000206C6070BD012070BD00000C00002015
:10085000180000200C4808B5816941F00101816150
:10086000816901F001010091C16941F08051C161CC
:10087000C06900F0805000900448416821F0E061B8
:1008800041F00071416008BD0010024000000140CD
:10089000F0B40E4B1B680C46C3F30223C3F10705EB
:1008A000042D00D90425191D072901D2002300E0D9
:1008B000DB1E012606FA05F1491E214099409E40A3
:1008C000761E16403143F0BC00F08ABC0CED00E00F
:1008D000064900F0070208684FF6FF03184040EA97
:1008E0000220034A10430860704700000CED00E04E
:1008F0000000FA052DE9F0470F46050061D0434E90
:10090000306800F00700B84209D2306820F00700D4
:1009100038433060306800F00700B84251D1286891
:100920003B4C810712D5400703D5606840F4E06076
:1009300060602878000703D5606840F4605060600C
:100940006068A96820F0F000084360602878C0075C
:1009500028D06868012810D02168022810D08907A3
:1009600000292EDA616821F0030101436160FFF77D
:1009700031FF804641F288390DE021688903EFE7B5
:100980008901EDE7FFF726FFA0EB0801494502D9F1
:100990000320BDE8F0876068696800F00C00B0EBE8
:1009A000810FEFD1306800F00700B8420BD93068F2
:1009B00020F0070038433060306800F00700B8428C
:1009C00001D00120E5E72878400705D56068E9688F
:1009D00020F4E060084360602878000706D560686E
:1009E000296920F4605040EAC100606000F018F806
:1009F0006168084AC1F30311515CC84006490860A8
:100A000006480068FFF706FF0020C2E7002002400A
:100A100000100240E0140008180000201000002020
:100A200012A185B00FC98DE80F0014A0144A006808
:100A300004905168134801F00C03042B10D0082BCC
:100A40000ED1C1F38343C9031DF803000AD55168D1
:100A500004AAC1F34041515C0A4A5043B0FBF1F093
:100A600005B0704708494843FAE70000020304054F
:100A7000060708090A0B0C0D0E0F101001020000EA
:100A80000010024000127A0000093D002DE9F84FE5
:100A9000040070D02078C04DC00749D06868C0F30A
:100AA0008100012807D06868C0F38100022809D1BD
:100AB0006868C00306D52868800339D560680028B7
:100AC000E7D035E06068B0F5803F0BD010B1B0F5ED
:100AD000A02F11D0286820F480302860286820F4E6
:100AE000802002E0286840F480302860606890B17F
:100AF000FFF770FE06460AE0286840F48020286070
:100B0000F0E700BFFFF766FE801B642873D82868F3
:100B10008003F7D50CE0FFF75DFE064605E000BF59
:100B2000FFF758FE801B6428F0D828688003F7D4AC
:100B300020789A4E80074FF001094FF0000839D510
:100B4000686810F00C0F07D06868C0F381000228B5
:100B500009D16868C00306D42868800714D52069C5
:100B6000012808D110E02069B0B1C6F80090FFF765
:100B700031FE074605E00AE1FFF72CFEC01B022804
:100B8000C4D828688007F7D52868616920F0F80084
:100B900040EAC10028600DE0C6F80080FFF71AFEA9
:100BA000074604E0FFF716FEC01B022823D828687A
:100BB0008007F7D4207800072CD57948A169D9B1EE
:100BC000C0F80090FFF706FE074604E0FFF702FEBC
:100BD000C01B02280FD8686A8007F7D571484FF408
:100BE000FA510068B0FBF1F0009000BF0098411E80
:100BF0000091FAD20EE080E0C0F80080FFF7EAFD35
:100C0000074604E0FFF7E6FDC01B022875D8686AB6
:100C10008007F7D42078400760D5E8690027C00036
:100C200008D4E86940F08050E861E869012700F0E5
:100C3000805000905C480168C90513D40168834660
:100C400041F480710160FFF7C5FD824606E000BFF8
:100C5000FFF7C0FDA0EB0A0064284ED8DBF80000C7
:100C6000C005F5D5E06801280AD008B1052813D0E1
:100C7000286A20F001002862286A20F0040002E0BF
:100C8000286A40F001002862E06841F2883B98B190
:100C9000FFF7A0FD82460BE0286A40F004002862BE
:100CA000EEE700BFFFF796FDA0EB0A0159455AD8C1
:100CB000286A8007F6D50CE0FFF78CFD824605E038
:100CC000FFF788FDA0EB0A0159454CD8286A800738
:100CD000F6D41FB1E86920F08050E861E06988B37C
:100CE0006968C1F38101022944D00228C6F86080F6
:100CF00004D0FFF76FFD044638E034E0FFF76AFDEB
:100D0000074604E0FFF766FDC01B02282BD82868C1
:100D10008001F7D4206AB0F5803F05D16868A168EA
:100D200020F4003008436860D4E90801084369688A
:100D300021F4741108436860C6F86090FFF74AFD1B
:100D4000044606E025E000BFFFF744FD001B022833
:100D500009D828688001F7D51BE000BFFFF73AFDEE
:100D6000001B022802D90320BDE8F88F2868800103
:100D7000F4D40EE00128F7D06868226A00F48031CC
:100D8000914204D1616A00F47010884201D00120C0
:100D9000EAE70020E8E700000010024000004242BD
:100DA00080044242180000200070004010B5401E30
:100DB000B0F1807F01D3012010BD4FF0E0246061CD
:100DC0000F21601700F00CFA0020A06107202061BD
:100DD000002010BD70B590F83C20012A26D00124D7
:100DE00080F83C40022280F83D2003685A689D68E4
:100DF00022F070060A6832435A600D4B02689A422C
:100E000008D0B2F1804F05D00A4B9A4202D00A4B6B
:100E10009A4204D1496825F080031943916080F813
:100E20003D40002180F83C10084670BD022070BD96
:100E3000002C0140000400400008004010B50400F0
:100E400003D094F83D0010B107E0012010BD002050
:100E500084F83C00204600F01FF8022084F83D0092
:100E6000211D206800F050F9012084F8460084F824
:100E70003E0084F83F0084F8400084F8410084F884
:100E8000420084F8430084F8440084F8450084F864
:100E90003D00002010BD000008B5006806498842EA
:100EA00008D10648C16941F00201C161C06900F082
:100EB0000200009008BD0000000400400010024045
:100EC00070B5044690F83C00012817D0012584F83D
:100ED0003C50022084F83D002068826822F07702AE
:100EE00022F47F4282600868502830D00DDC202830
:100EF0004DD005DC98B310283BD148E0022070BDEE
:100F0000302844D0402834D139E0602828D07028D7
:100F100006D0B0F5805F2CD0B0F5005F29D10AE093
:100F2000CB68D1E90121206800F024F920688168AC
:100F300041F0770109E0CB68D1E90121206800F098
:100F400019F92068816841F48041816011E0CA6824
:100F50004968206800F020F95021206807E016E079
:100F6000CA684968206800F028F96021206800F00C
:100F70000BF984F83D50002084F83C0070BDCA682D
:100F80004968206800F008F940212068EFE72268EE
:100F900001461046EBE7FEE770B586B00024214815
:100FA0000094019402940394816941F010018161DD
:100FB000816901F010010491816941F004018161AE
:100FC000816901F004010491816941F008018161A6
:100FD0008069154E00F008004FF4FC750490002263
:100FE00029463046FFF7F1FB4FF46040CDE900049D
:100FF00069460E480294FFF7F3FA7F20CDE900041A
:1010000069460B480294FFF7EBFA01200095CDE901
:1010100001040220039069463046FFF7E1FA06B06A
:1010200070BD000000100240000C014000100140A3
:101030000008014010B586B00024174800940194C0
:101040000294039404941349059401604721C0E974
:1010500001144FF6FE71C0E903148461FFF7EEFE40
:1010600008B172B6FEE74FF48050009069460A4816
:10107000FFF726FF08B172B6FEE7049404A90648FC
:101080000594FFF7A7FE002801D072B6FEE706B070
:1010900010BD0000000400401C000020FEE7FEE739
:1010A00070477047FFF79CBB30B58FB0282168466A
:1010B000FFF78AF814210AA8FFF786F80225012015
:1010C000049000951020059000244FF4E010CDE925
:1010D000084007956846FFF7D9FC08B172B6FEE7ED
:1010E0000F20CDE90A054FF48060CDE90C400121C5
:1010F0000AA80E94FFF7FEFB002801D072B6FEE7A7
:101100000FB030BD70470000F0B50268164B174CA9
:10111000174D4FF08047984205D0B84203D0A04207
:1011200001D0A84203D122F070064A6832439842A7
:1011300005D0B84203D0A04201D0A84203D122F486
:101140004074CA6822434C6922F080022243026044
:101150008A68C2620A688262984201D109690163A1
:1011600001214161F0BD0000002C0140000400405D
:101170000008004010B5846842EA032224F47F444A
:101180000A432243826010BD826822F070020A4343
:1011900042F007018160704710B5036A046A24F0C9
:1011A00001040462846924F0F00444EA021423F088
:1011B0000A020A438461026210BD10B5036A23F07B
:1011C000100303628369046A23F4704343EA023222
:1011D00024F0A00343EA01118261016210BDFEE721
:1011E0000907090E002804DB00F1E02080F8001454
:1011F000704700F00F0000F1E02080F8141D7047E8
:101200008CB0FFF7F5FAFFF74FFFFFF7C5FEFFF7CA
:1012100011FFA14B1021CDE907310820CDE909309C
:101220004021CDE903312020CDE905308020440064
:101230000094CDE90130022210219848FFF728F8E8
:10124000974D012221462846FFF7BFFA002211469A
:101250009248FFF7A5F893A19048FFF7A1F94FF442
:10126000FA742046FFF7AAF990A18C48FFF798F985
:101270002046FFF7A3F98DA18848FFF791F9204692
:10128000FFF79CF989A18548FFF78AF98348FFF7A2
:1012900072F8002211468148FFF782F884A17F4846
:1012A000FFF77EF9012200217C48FFF779F884A13D
:1012B0007A48FFF775F9874CDFF814B2A71F0026AC
:1012C000AA464FF00109651F4FF40051D846584611
:1012D000FFF776FA002851D02078401C40B22070E9
:1012E00097F90010884200DD2E704FF4804140468F
:1012F000FFF766FAF0B36078401C40B2607097F96F
:101300000010884200DD6E704FF400414046FFF748
:1013100057FA80B3A078401C40B2A07097F9001033
:10132000884200DDAE700121D0465046FFF748FAF2
:10133000B0B3E078401C40B2E07097F900108842EA
:1013400000DDEE7002214046FFF73AFA48B32079FB
:10135000401C40B2207197F90010884200DD2E71C8
:10136000012211464D48FFF71BF804214046FFF7C4
:1013700027FA01E00BE015E078B332E0287808B9ED
:1013800085F8009020780028AFD02670ADE7687807
:1013900008B985F8019060780028B5D06670B3E789
:1013A00009E011E0A87808B985F80290A078002833
:1013B000B9D0A670B7E7E87808B985F80390E07867
:1013C0000028BFD0E670BDE7287908B985F80490F9
:1013D00020790028C4D02671C2E7FFE728780128C9
:1013E0000ED03DA12D48FFF7DBF8012204212B4848
:1013F000FEF7D6FF08214046FFF7E2F910B104E0FE
:1014000036A1EFE7687801280ED033A12348FFF713
:10141000C7F8012207212148FEF7C2FF10214046EC
:10142000FFF7CEF910B104E02CA1EFE7A87801286E
:101430000ED029A11948FFF7B3F801220A21174855
:10144000FEF7AEFF20214046FFF7BAF910B104E0E5
:1014500022A1EFE7E87801280ED01FA10F48FFF77F
:101460009FF801220D210D48FEF79AFF40214046CA
:10147000FFF7A6F910B104E018A1EFE728790128D9
:1014800007D015A10548FFF78BF83220FFF796F833
:101490001AE712A1F6E70000000C014064000020EA
:1014A0000008014053746172740000002E000000B7
:1014B000203120203220203320203420203500000D
:1014C0002058202058202058202058202058000044
:1014D0000010014006000020580000004F000000EE
:1014E00000000000000000000102030406070809D4
:1014F00010150008000000201C0000002801000852
:101500002C1500081C0000200407000044010008FE
:101510003200000000000000000000000100000098
:0C15200010000000000000000024F40097
:04000005080000ED02
:00000001FF
